:020000040800F2
:1000000050090020A5010008E31A0008431A00085F
:10001000E11A0008310900088D1C000800000000EA
:10002000000000000000000000000000E71A0008C7
:100030003309000800000000E51A0008E91A00086A
:10004000BF010008BF010008BF010008BF01000890
:10005000BF010008BF010008BF010008BF01000880
:10006000BF010008BF010008BF010008BF01000870
:10007000BF010008BF010008BF010008BF01000860
:10008000BF010008BF01000841080008BF010008C7
:10009000BF010008BF010008BF010008BF01000840
:1000A000BF010008BF010008BF010008BF01000830
:1000B000BF010008BF010008BF010008BF01000820
:1000C000BF010008BF010008BF010008BF01000810
:1000D000BF010008BF010008BF010008BF01000800
:1000E000BF010008BF010008BF01000800F002F8CE
:1000F00000F048F80AA090E8000C82448344AAF17A
:100100000107DA4501D100F03DF8AFF2090EBAE877
:100110000F0013F0010F18BFFB1A43F0010318473B
:100120008C2C0000AC2C0000103A24BF78C878C199
:10013000FAD8520724BF30C830C144BF04680C60ED
:10014000704700000023002400250026103A28BF35
:1001500078C1FBD8520728BF30C148BF0B60704739
:10016000642900F01181732900F0BF8200207047DC
:100170001FB59DE8030000F0F9F900F056F91FBD26
:1001800010B510BD00F0DBFA1146FFF7F1FF01F0EA
:1001900095FD00F0F9FA03B4FFF7F2FF03BC00F09D
:1001A00029FB00000948804709480047FEE7FEE7B1
:1001B000FEE7FEE7FEE7FEE7FEE7FEE7FEE7FEE717
:1001C00004480549054A064B704700005B1B0008C0
:1001D000ED000008500300205009002050050020C9
:1001E0005005002010B5044600211120ABBE002CA4
:1001F00000D0206010BD70B5064600F09BF9056880
:1002000006F10B0020F00704B4429CBF002070BD33
:100210002B466A68BAB11068A04210D304F10801F5
:1002200088423CBF5068586007D35168101941603C
:100230001168091B016058601460101D70BD1346E1
:100240005268002AE7D12146284600F07BF90028B1
:10025000DED170BD70B50446051F00F06BF9006873
:10026000002C14BF446870BD002C18BFAC423CBFCA
:1002700020466468F8D301680A18AA4218BF45608E
:1002800003D12A6805461144016028684119A1423A
:100290001CBF6C6070BD616869602168084428609B
:1002A00070BD00000FB41CB5074B06AA7B4469461D
:1002B0000090059800F0EFF90020694600F0FEF983
:1002C0001CBC5DF814FB00000D0400002DE9F0419A
:1002D0000E460446002020622046E168884730B37D
:1002E000252805D0D4E901219047206A401CF2E777
:1002F000E168204600278847050018D0A5F1410095
:10030000192802D820354FF4006732462946204686
:100310002760FFF725FF40B1012804D0F61D26F025
:1003200007060836D8E7361DD6E72846DAE7206AFA
:10033000BDE8F08170B50C460546012A05D0287845
:10034000800600D5EA69002302E0012305E05B1C7A
:10035000934202D2E05C0028F9D1A869E618C01ADD
:10036000A861286A184428622846AFF3008004E098
:10037000D5E9012114F8010B9047B442F8D328467F
:10038000AFF3008070BD00002DE9F0410646002467
:1003900010687529314616A510D0AFF300800028EB
:1003A00002DA404213A507E031688A0701D512A599
:1003B00002E0490704D511A5012401E0AFF3008054
:1003C00000210A2206F1240709E0B0FBF2FCB0FB91
:1003D000F2F302FB1C00303078541846491C002808
:1003E000F3D123462A463046BDE8F04100F0F4B888
:1003F000000000002D0000002B0000002000000085
:100400000B4910B5A1F17C020A4CC2E93712372121
:1004100006E000EB104342F82130074B00FB03409D
:100420000B1EA1F10101F4DC10BD0120E8E7000082
:1004300084020020E119D666CD0D010010B5431CE1
:1004400002E010F8011B71B18107FAD14FF00132BF
:1004500002C88C1A8C4314EAC211F9D0C01A0A06D9
:1004600003D0C01E10BDC01A10BD0A0401D0801EEA
:1004700010BD0902FCD0401E10BD10B5203AC0F0DE
:100480000B80B1E81850203AA0E81850B1E8185095
:10049000A0E81850BFF4F5AF5FEA027C24BFB1E8D2
:1004A0001850A0E8185044BF18C918C0BDE8104043
:1004B0005FEA827C24BF51F8043B40F8043B08BF4C
:1004C0007047D20728BF31F8023B48BF11F8012B13
:1004D00028BF20F8023B48BF00F8012B70474FF0BF
:1004E000000200B5134694469646203922BFA0E884
:1004F0000C50A0E80C50B1F12001BFF4F7AF090790
:1005000028BFA0E80C5048BF0CC05DF804EB890080
:1005100028BF40F8042B08BF704748BF20F8022BC3
:1005200011F0804F18BF00F8012B704770477047DB
:100530007047704700487047F402002070477047CA
:100540007047704738B504460A4600206946AFF345
:100550000080002808BF38BD02460099204600F000
:10056000CDF8012038BD012000F0E2B8F8B5AFF3B6
:100570000080054600200C46102000BF0646A81942
:10058000A0420DD9324669460020AFF30080070033
:1005900008BF00F0CDF80098A04218BF0546C41966
:1005A000FFF7C8FF05600746F01D20F00700461959
:1005B000284600F00AF8B44208BFF8BDA21B314635
:1005C0003868BDE8F84000F099B800210160C0E942
:1005D00001107047102070472DE9F0470D469946ED
:1005E0009246044600F124080168880604D5E069B3
:1005F00021F01001216000E00120A84201DD471B2D
:1006000000E00027A1697A1902EB0900081AA0612D
:100610002078C00602D42046AFF30080002608E010
:10062000D4E901211AF806009047206A401C761C84
:1006300020624E45F4DB2078C0060AD52046AFF391
:10064000008006E0D4E9012130209047206A401C58
:100650002062381EA7F10107F4DC07E0D4E901218C
:1006600018F805009047206A401C2062281EA5F15A
:100670000105F3DC2046AFF300802078000602D5A8
:100680000220BDE8F0870120FBE7000001694A1C59
:1006900002610878704700B58FB0CDE901310021C3
:1006A000059105497944CDE9031011466846FFF7E5
:1006B0000DFE0FB000BD0000E5FFFFFF0A6802F865
:1006C000010B0A60704710B5436913B1AFF30080A6
:1006D00001E0FFF72FFE012010BD127800F1240188
:1006E0000A7000224A700122EDE711684FF0FF32D4
:1006F000E9E7000000487047EC020020034640682C
:100700008C46002818BF88423CBF03464068F8D397
:1007100018681844884207D00CF1030020F0070045
:10072000001D411A521A0146081D0A60FFF792BDCA
:1007300010B500F037F8BDE8104000F02EB875464F
:10074000FFF7D8FFAE4605006946534620F0070084
:10075000854618B020B5FFF733FDBDE820404FF0C7
:1007600000064FF000074FF000084FF0000B21F09B
:100770000701AC46ACE8C009ACE8C009ACE8C00968
:10078000ACE8C0098D46704710B50446AFF3008051
:100790002046BDE81040FFF7FEBC002801D000F065
:1007A00029B8704710B5012805D0002103A000F03A
:1007B00027F8012010BD09A1F8E70000534947526E
:1007C000544D454D3A204F7574206F662068656121
:1007D00070206D656D6F7279000000003A204865E9
:1007E0006170206D656D6F727920636F72727570C4
:1007F0007465640001491820ABBEFEE726000200C4
:1008000070B505460C460A2000E06D1C00F011F89A
:1008100035B128780028F8D102E0641C00F009F80E
:1008200014B120780028F8D1BDE870400A20AFF359
:10083000008008B569468DF800000320ABBE08BDF6
:1008400010B5044800F08BF9BDE81040024800F0F4
:1008500086B90000300000206000002070B504461A
:1008600000688168C943C90717D1816821F0010177
:10087000816000F027FC05460AE000BF00F022FC82
:10088000401B022804D920688068C043C00706D0F6
:1008900020688068C043C007F0D0002070BDA06A07
:1008A00040F01000A062E06A40F00100E062012028
:1008B00070BD0000F8B50026044600960068816807
:1008C000C943C9072DD0816841F0010181601648F4
:1008D00016490068B0FBF1F000E0401E00900028CF
:1008E000FBD100F0EFFB054616E000BF00F0EAFB8D
:1008F000401B022810D920688068C043C0070BD075
:10090000A06A40F01000A062E06A40F00100E062DE
:1009100084F824600120F8BD20688068C043C007C7
:10092000E4D10020F8BD00002C00002040420F0060
:10093000FEE770472DE9F047224D234F002422485F
:10094000F03800F057FA642000F0BAFAA86947F8C6
:100950002400641C0A2CF2DBDFF86C80002408F110
:1009600028081948C03800F045FA642000F0A8FAB9
:10097000E86948F82400641C0A2CF2DBA946D5E992
:1009800002650024304657F8241001F02BFF06467C
:1009900058F82410284601F025FF641C05460A2C4F
:1009A000F0DB0A4D4C46294601F07EFF20612946C6
:1009B000304601F079FF60610020E060A060BDE892
:1009C000F0870000000000202001002000002041EE
:1009D00070470000F8B50024009490F824202546C4
:1009E000012A12D0012280F824204A681F23072AF6
:1009F0000DD20668776B521E02EB820293409F4332
:100A00000B6893401F43776319E00220F8BD066826
:100A10000D2A0AD2376BD21F02EB820293409F430A
:100A20000B6893401F43376309E0F76A0D3A02EB06
:100A3000820293409F430B6893401F43F7620A680A
:100A4000072306680A2A0AD3F7680A3A02EB420229
:100A500093409F438B6893401F43F76008E03769DA
:100A600002EB420293409F438B6893401F433761E0
:100A70000A68102A01D0112A20D1124B02689A422A
:100A800017D193681B0219D4936843F40003936051
:100A90000968102912D10C490C4A0968B1FBF2F11E
:100AA00001EB8101490000E0491E00910029FBD1C2
:100AB00004E0816A41F020018162012480F8245021
:100AC0002046F8BD002401402C00002040420F00C9
:100AD0002DE9F04100681A491A4C1B4D1B4F4FF08D
:100AE0006636884214D11A4800F036F880B2608029
:100AF00001F0BCFF294601F0D7FE01F047FE324667
:100B00003B4601F045FD01F011FDA061BDE8F0811B
:100B100010498842FAD10E48303000F01DF880B2FA
:100B2000A08001F0A3FF294601F0BEFE01F02EFED9
:100B300032463B4601F02CFD01F0F8FCE061E5E7B0
:100B4000002401400000002000F07F4566660A4056
:100B500030000020002801400068C06C704770B56C
:100B60000446006806684568A90625D5B10723D55F
:100B7000A16AC90603D4A16A41F40071A162816827
:100B8000C1F34241072910D1217B71B9416821F09D
:100B900020014160A06A20F48070A062A06AC004B5
:100BA00003D4A06A40F00100A0622046FFF790FF46
:100BB00021686FF01200086028062ED570072CD52A
:100BC000A06AC00603D4A06A40F40050A062206866
:100BD0008168C1F30231072909D04168490515D45C
:100BE0008168C1F34241072910D1217B71B9416865
:100BF00021F080014160A06A20F48050A062A06AC8
:100C0000C00503D4A06A40F00100A0622046FFF7AF
:100C1000DFFE21686FF00C00086068060CD5F00755
:100C20000AD0A06A40F48030A062204600F094F818
:100C300021686FF00100086070BD00002DE9F041EF
:100C40004FF0000704003D467ED0A06A002628B978
:100C5000E66284F82460204600F080F82046FFF722
:100C6000FDFDA16AC90600D420B1A06A40F01000C1
:100C7000A06269E0A16A21F4885141F00201A162F9
:100C80006268E169237B0A4347EA43010A43A1689A
:100C90004FF48077B94209D0012907D05FF00001F5
:100CA00094F814C0BCF1010F02D00AE03946F7E70E
:100CB000F3B1A36A43F02003A362E36A43F00103A4
:100CC000E3622368D3F804C02CF4694C4CEA010CAD
:100CD000C3F804C021688B68DFF870C003EA0C0316
:100CE00013438B60A168B9420BD0012909D00CE0F5
:100CF000DFF85CC0A3690CEB43330B4343F40061A2
:100D0000DFE7218A0D05A5F580152168CB6A23F45C
:100D100070032B43CB62216889680E4B19409142C6
:100D200008D1E662A16A21F0020141F00101A1624D
:100D3000BDE8F081A06A20F0020040F01000A0623F
:100D4000E06A40F00100E0620120F1E7FDF7E1FF19
:100D500000E0FFFFFE0E1FFF7047000010B586B0D9
:100D6000002100910191029103911E4C03681E49DC
:100D700003221E48A34211D18B6943F400738B6197
:100D80008B6903F4007304938B6943F004038B6154
:100D9000896901F004010491012113E0144CA3427C
:100DA0001DD18B6943F480638B618B6903F480638D
:100DB00004938B6943F004038B61896901F004019A
:100DC00004910221CDE90012694600F08BF800225F
:100DD0001146122000F0E2F9122000F0D1F906B01D
:100DE00010BD000000240140001002400008014036
:100DF0000028014070B5044690F8240001280DD069
:100E0000012084F824002046FFF754FD02004FF033
:100E1000000005D084F82400104670BD022070BD8B
:100E2000A16A40F60163994341F48071A162224DA9
:100E300023682249AB4218D10E6816F4702F14D0E3
:100E4000A66A46F48016A6620E68760505D5A66ADF
:100E500026F4005646F48056A662A66AF6040AD521
:100E6000E66A26F00606E66206E0A66A26F4801622
:100E7000A6625E68E9E7E06284F824006FF0020091
:100E800018602068436843F020034360206883684B
:100E9000C3F34243072B05D1A84208D1096811F4D6
:100EA000702F04D0816841F480118160B4E78168BB
:100EB00041F4A001F9E700000028014004240140AA
:100EC00070B5044600F0FEF80546601C02D00448E8
:100ED0000078044400F0F6F8401BA042FAD370BD3D
:100EE000200000202DE9F84FDFF8B8910024A9F187
:100EF000040B23460F2709F1040AABF1040EC9E0E5
:100F00000125A5402A40AA427DD1674ED1F804C0F0
:100F1000ACEB0608B44532D014DCBCF1030F3AD078
:100F200009DCBCF1000F2AD0BCF1010F1CD0BCF1D0
:100F3000020F31D11DE0BCF1110F17D0BCF1120F1F
:100F40002AD119E0B8F5881F19D006DCB8F5803F22
:100F500015D0B8F5801F1FD111E0B8F5001F0ED0D5
:100F6000B8F5041F18D10AE0CB6815E0CB681B1D4B
:100F700012E0CB6808330FE0CB680C330CE08B68D1
:100F80002BB1012B4FF0080303D0456104E004238B
:100F900002E0056100E00023FF2A01D8064601E0D7
:100FA00000F104064FEA840501D9A5F12005D6F821
:100FB000008007FA05FC28EA0C0803FA05F548EA60
:100FC0000508C6F800804D68ED0062D5374DAE6962
:100FD00046F00106AE61AD6924F0030605F0010597
:100FE0000095334D06EB050CDCF80850A607360FCC
:100FF00007FA06F825EA0805DFF8B880404503D16E
:101000004FF0000817E044E0DFF8AC80404502D123
:101010004FF001080FE0DFF8A480404502D14FF007
:10102000020808E0DFF89880404502D14FF003083D
:1010300001E04FF0040808FA06F848EA0508CCF881
:1010400008804D68D9F80060ED024D4601D5164381
:1010500000E096432E604D68DAF80060AD02554618
:1010600001D5164300E096432E604D68DBF8006022
:10107000AD035D4601D5164300E096432E604D68F2
:10108000DEF80060ED03754601D5164300E0964397
:101090002E60641C0D682A46E5407FF431AFBDE840
:1010A000F88F0000080401400000111000100240F9
:1010B0000000014000080140000C01400010014008
:1010C00000140140014880687047000020000020A3
:1010D0000248816802781144816070472000002036
:1010E000074810B5016841F010010160032000F0CD
:1010F00075F80F2000F006F800F024F8002010BD6D
:101100000020024070B50D4D04464FF47A712878E6
:10111000B1FBF0F00A490968B1FBF0F000F052FBB6
:1011200048B9102C07D200222146501E00F036F894
:1011300000206C6070BD012070BD00002000002008
:101140002C0000200C4808B5816941F00101816143
:10115000816901F001010091C16941F08051C161D3
:10116000C06900F0805000900448416821F0E061BF
:1011700041F00071416008BD0010024000000140D4
:10118000002809DB00F01F02012191404009800086
:1011900000F1E020C0F8001170470000F0B40E4BE1
:1011A0001B680C46C3F30223C3F10705042D00D9C5
:1011B0000425191D072901D2002300E0DB1E0126AA
:1011C00006FA05F1491E214099409E40761E1640C0
:1011D0003143F0BC00F05BBD0CED00E0064900F0CF
:1011E000070208684FF6FF03184040EA0220034A4E
:1011F00010430860704700000CED00E00000FA05A5
:101200002DE9F84305460078354CC00754D0E06915
:101210000026C00008D4E06940F08050E061E06939
:10122000012600F0805000902E480168C90512D4B4
:101230000168804641F480710160FFF743FF074673
:1012400005E000BFFFF73EFFC01B642823D8D8F895
:101250000000C005F6D5206A10F4407021D0A9889E
:1012600001F4407181421CD0206A1F49012220F400
:1012700040700A6000220A602062C00711D0FFF7A8
:1012800021FF074641F2883808E000BFFFF71AFF48
:10129000C11B414502D90320BDE8F883206A8007BD
:1012A000F4D5206A696820F44070084320621EB1BA
:1012B000E06920F08050E0612878800705D56068FB
:1012C000A96820F44040084360602878C00605D52E
:1012D0006068E96820F48000084360600020DBE774
:1012E0000010024000700040400442422DE9F047E7
:1012F0000F46050061D0434E306800F00700B84249
:1013000009D2306820F0070038433060306800F0C0
:101310000700B84251D128683B4C810712D54007DD
:1013200003D5606840F4E06060602878000703D56A
:10133000606840F4605060606068A96820F0F00068
:10134000084360602878C00728D06868012810D05A
:101350002168022810D0890700292EDA616821F05F
:10136000030101436160FFF7ADFE804641F2883919
:101370000DE021688903EFE78901EDE7FFF7A2FEA1
:10138000A0EB0801494502D90320BDE8F087606859
:10139000696800F00C00B0EB810FEFD1306800F00D
:1013A0000700B8420BD9306820F00700384330609E
:1013B000306800F00700B84201D00120E5E7287846
:1013C000400705D56068E96820F4E0600843606084
:1013D0002878000706D56068296920F4605040EA43
:1013E000C100606000F038F86168084AC1F3031179
:1013F000515CC8400649086006480068FFF782FE55
:101400000020C2E700200240001002403C2D0008EE
:101410002C00002024000020044805490068496889
:10142000044AC1F30221515CC84070472C000020DF
:10143000001002404C2D0008044805490068496826
:10144000044AC1F3C221515CC84070472C000020FF
:10145000001002404C2D00080E4A51680E4801F061
:101460000C03042B11D0082B0FD10C48C1F383437C
:10147000C903C05C0AD55168084AC1F34041921EB5
:10148000515C054A5043B0FBF1F0704704494843B2
:10149000704700000010024000127A002C2D000856
:1014A00000093D002DE9F84F040070D02078C04DB0
:1014B000C00749D06868C0F38100012807D0686878
:1014C000C0F38100022809D16868C00306D52868E6
:1014D000800339D560680028E7D035E06068B0F552
:1014E000803F0BD010B1B0F5A02F11D0286820F4A8
:1014F00080302860286820F4802002E0286840F4CA
:1015000080302860606890B1FFF7DCFD06460AE095
:10151000286840F480202860F0E700BFFFF7D2FD84
:10152000801B642873D828688003F7D50CE0FFF788
:10153000C9FD064605E000BFFFF7C4FD801B642817
:10154000F0D828688003F7D420789A4E80074FF0AF
:1015500001094FF0000839D5686810F00C0F07D06A
:101560006868C0F38100022809D16868C00306D406
:101570002868800714D52069012808D110E0206967
:10158000B0B1C6F80090FFF79DFD074605E00AE1FF
:10159000FFF798FDC01B0228C4D828688007F7D53C
:1015A0002868616920F0F80040EAC10028600DE079
:1015B000C6F80080FFF786FD074604E0FFF782FDCE
:1015C000C01B022823D828688007F7D4207800079A
:1015D0002CD57948A169D9B1C0F80090FFF772FD08
:1015E000074604E0FFF76EFDC01B02280FD8686AAB
:1015F0008007F7D571484FF4FA510068B0FBF1F05D
:10160000009000BF0098411E0091FAD20EE080E0E9
:10161000C0F80080FFF756FD074604E0FFF752FDD3
:10162000C01B022875D8686A8007F7D42078400765
:1016300060D5E8690027C00008D4E86940F0805010
:10164000E861E869012700F0805000905C4801687B
:10165000C90513D40168834641F480710160FFF726
:1016600031FD824606E000BFFFF72CFDA0EB0A002B
:1016700064284ED8DBF80000C005F5D5E0680128E5
:101680000AD008B1052813D0286A20F0010028628A
:10169000286A20F0040002E0286A40F00100286275
:1016A000E06841F2883B98B1FFF70CFD82460BE001
:1016B000286A40F004002862EEE700BFFFF702FD51
:1016C000A0EB0A0159455AD8286A8007F6D50CE0E4
:1016D000FFF7F8FC824605E0FFF7F4FCA0EB0A01F7
:1016E00059454CD8286A8007F6D41FB1E86920F024
:1016F0008050E861E06988B36968C1F3810102291B
:1017000044D00228C6F8608004D0FFF7DBFC044612
:1017100038E034E0FFF7D6FC074604E0FFF7D2FCE0
:10172000C01B02282BD828688001F7D4206AB0F5A6
:10173000803F05D16868A16820F4003008436860E4
:10174000D4E908010843696821F47411084368600A
:10175000C6F86090FFF7B6FC044606E025E000BF3F
:10176000FFF7B0FC001B022809D828688001F7D5D4
:101770001BE000BFFFF7A6FC001B022802D90320D4
:10178000BDE8F88F28688001F4D40EE00128F7D076
:101790006868226A00F48031914204D1616A00F4E1
:1017A0007010884201D00120EAE70020E8E700003D
:1017B0000010024000004242800442422C000020FF
:1017C0000070004010B5401EB0F1807F01D30120B1
:1017D00010BD4FF0E02460610F21601700F057FA50
:1017E0000020A06107202061002010BD70B504001A
:1017F00004D094F84100002510B106E0012070BD2E
:1018000084F84050204600F023F8242084F841005A
:101810002068C16821F40051C160204600F09EF9A3
:101820002068016921F4904101612068416921F03B
:101830002A0141612068C16841F40051C1606564BA
:10184000202084F8410084F842006563002070BDC8
:1018500070B586B000240094019402940394234E42
:101860000368234902200322224DB34219D18B6918
:1018700043F480438B618B6903F4804304938B6949
:1018800043F004038B618969039201F00401049120
:101890000102CDE9001069462846FFF723FB281511
:1018A0001BE0154EB3421FD1CB6943F40033CB612B
:1018B000CB6903F4003304938B6943F004038B6119
:1018C0008969039201F0040104910421CDE900101B
:1018D00069462846FFF706FB0820CDE90004694663
:1018E00028460294FFF7FEFA06B070BD00380140AA
:1018F0000010024000080140004400402DE9F84378
:10190000044690F84200994616460D46202802D01B
:101910000220BDE8F883ADB1A6B1002060642221A9
:1019200084F842102063FFF7CDFBA6858046E6854C
:10193000A0684FF48057B84201D1206920B12E46EB
:10194000002526E00120E4E7002622E043460022AD
:1019500020212046CDF8009000F05CF908B103206A
:10196000D7E726B1A068B8421BD038B108E020689C
:101970004068C0F3080025F8020B07E0206980B139
:101980002068406800F07F0006F8010BE08D401EE3
:10199000E085E08D0028D9D1202084F84200002085
:1019A000B7E720684068EFE72DE9F843044690F870
:1019B00041001F4616460D46202802D00220BDE8F1
:1019C000F8837DB176B100206064212084F8410065
:1019D000FFF778FBA6848046E684A068B0F5805FB8
:1019E00002D003E00120EAE7206910B12E4600256D
:1019F0000EE000260CE08021204600F00BF9A0B993
:101A0000AEB116F8010B21684860E08C401EE084FE
:101A1000E08C43464FF0000200970028EBD14FF0D6
:101A20004001204600F0F6F830B10320C7E735F852
:101A3000020BC0F30800E6E7202084F841000020F4
:101A4000BDE7FEE73EB500241148009401940294DE
:101A50000E498460016004730475012505614FF42B
:101A600060214460C161FFF7E9F808B172B6FEE792
:101A700007200094CDE9015069460548FEF7AAFF0A
:101A8000002801D072B6FEE73EBD000000240140F0
:101A9000300000203EB500241048009401940294C8
:101AA0000D498460016004730475012505614FF4DC
:101AB00060214460C161FFF7C1F808B172B6FEE76A
:101AC0000095CDE9015469460448FEF783FF0028DC
:101AD00001D072B6FEE73EBD002801406000002044
:101AE000FEE7FEE770477047FFF7F2BA30B593B0F4
:101AF00028216846FEF7F3FC14210AA8FEF7EFFC44
:101B00000025022401200F950490009410200590D8
:101B10001295C003CDE908501195109507946846B9
:101B2000FFF7C0FC08B172B6FEE70AA90F2081E8F2
:101B300031000D9500210AA80E95FFF7D7FB08B1DB
:101B400072B6FEE70FA811950F94FFF759FB002816
:101B500001D072B6FEE713B030BD704770B50446D1
:101B600000680169E26821F4405111430161216973
:101B7000A0680843616908432168CA6841F20C63A0
:101B80009A430243CA6020684169A26921F4407106
:101B9000114341611E492068884202D1FFF74CFC85
:101BA00001E0FFF739FC00EBC00101EB00126068B7
:101BB00064218000B2FBF0F3B3FBF1F36FF0180681
:101BC0007343B2FBF0F5B2FBF0F605EB830532236D
:101BD00003EB0515B5FBF1F5B6FBF1F605F0F005E5
:101BE00005EB0615B2FBF0F6B2FBF0F0B0FBF1F03E
:101BF0006FF01802504306EB800003EB0010B0FBBF
:101C0000F1F0216800F00F002844886070BD0000EA
:101C1000003801402DE9F041984617460E4604462B
:101C2000069D27E0681C25D02DB1FFF74BFAA0EBED
:101C30000800A8421ED920680C3050E8001F21F48B
:101C4000D07140E80012002AF5D12068143050E825
:101C5000001F21F0010140E80012002AF5D12020E8
:101C600084F8410084F84200002084F840000320FA
:101C7000BDE8F0812068006836EA000004D000204A
:101C8000B842CFD00020F3E70120F9E7FEE70907CB
:101C9000090E002804DB00F1E02080F800147047F2
:101CA00000F00F0000F1E02080F8141D70470021C3
:101CB0000A464254491C9629FBDB7047E2B00020DB
:101CC000FEF790FAFEF79CFBFFF70AFAFFF70EFF0C
:101CD000FE48816941F020018161816901F02001A4
:101CE0000091816941F0040181618069F84900F047
:101CF00004000090F7484FF4165500240160C0E935
:101D000001540C21C460C0E904418461C461FFF73F
:101D10006DFD08B172B6FEE7EE48EF49483001604C
:101D2000C0E901540821C460C0E904418461C46170
:101D3000FFF75CFD08B172B6FEE7FFF783FEFFF721
:101D4000A9FEFEF7F7FDE5A000685E905EA8FEF72D
:101D500075FB82B24FF0FF3633465EA9DD48FFF7D0
:101D600023FE5EA8FEF76AFB401DDA4982B23346C5
:101D7000E031D848FFF7C2FD5EA8FEF75FFBD5490A
:101D8000401D82B2E0313346A1F19800FFF70CFE0E
:101D900041F288373846FFF793F8CE48E030FFF736
:101DA00086FF00254FF4FA7400230122CC49C9486C
:101DB000FFF7A4FD2046FFF783F86D1CEDB20A2D56
:101DC000F2D32022C7A12FA8FEF757FB2FA8FEF7BA
:101DD00035FB82B233462FA9BE48FFF7E5FD2FA899
:101DE000FEF72CFB401DBB4982B23346E031B948B7
:101DF000FFF784FD2FA8FEF721FBB649401D82B2F4
:101E0000E0313346A1F19800FFF7CEFD3846FFF7E9
:101E100057F8B048E030FFF74AFF002500230122C1
:101E2000AF49AC48FFF76AFD2046FFF749F86D1C43
:101E3000EDB20A2DF2D31422B2A137A8FEF71DFB92
:101E400037A8FEF7FBFA82B23546334637A9A148D8
:101E5000FFF7AAFD37A8FEF7F1FA401D9D4982B2AF
:101E60002B46E0319B48FFF749FD37A8FEF7E6FA1D
:101E70009849401D82B2E0312B46A1F19800FFF74E
:101E800093FD3846FFF71CF89248E030FFF70FFF4C
:101E900000260023012292498E48FFF72FFD20469D
:101EA000FFF70EF8761CF6B20A2EF2D39AA30DF5C0
:101EB000827C0FCB8CE80F0041A8FEF7BFFA82B2FC
:101EC0002B4641A98348FFF76FFD41A8FEF7B6FAFC
:101ED000401D804982B22B46E0317E48FFF70EFD5F
:101EE00041A8FEF7ABFA7B49401D82B2E0312B4698
:101EF000A1F19800FFF758FD3846FEF7E1FF75485D
:101F0000E030FFF7D4FE0026002301227449714817
:101F1000FFF7F4FC2046FEF7D3FF761CF6B20A2E3C
:101F2000F2D381A30DF58A7C0FCB8CE80F0045A876
:101F3000FEF784FA82B22B4645A96648FFF734FDC6
:101F400045A8FEF77BFA401D624982B22B46E0317C
:101F50006048FFF7D3FC45A8FEF770FA5D49401DC5
:101F600082B2E0312B46A1F19800FFF71DFD384603
:101F7000FEF7A6FF5748E030FFF799FE0026002342
:101F8000012257495348FFF7B9FC2046FEF798FF56
:101F9000761CF6B20A2EF2D367A050AB07C883E8CE
:101FA000070050A8FEF74AFA82B22B4650A94948CA
:101FB000FFF7FAFC50A8FEF741FA401D454982B2EE
:101FC0002B46E0314348FFF799FC50A8FEF736FA5C
:101FD0004049401D82B2E0312B46A1F19800FFF745
:101FE000E3FC3846FEF76CFF3A48E030FFF75FFE4F
:101FF0000026002301223A493648FFF77FFC20469D
:10200000FEF75EFF761CF6B20A2EF2D34DA253AB5A
:1020100007CA83E8070053A8FEF710FA82B22B46DE
:1020200053A92C48FFF7C0FC53A8FEF707FA401D40
:10203000284982B22B46E0312648FFF75FFC53A8BF
:10204000FEF7FCF92349401D82B2E0312B46A1F195
:102050009800FFF7A9FC3846FEF732FF1D48E03034
:10206000FFF725FE0026002301221D491948FFF72E
:1020700045FC2046FEF724FF761CF6B20A2EF2D36A
:1020800033A30DF5927C0FCB8CE80F0049A8FEF727
:10209000D5F982B22E462B4649A90E48FFF784FC9B
:1020A00049A8FEF7CBF9401D0A4982B23346E03118
:1020B0000848FFF723FC49A8FEF7C0F9401D054971
:1020C00082B2E0313346A1F1980049E000100240AD
:1020D00000380140900000200044004041540A00B4
:1020E0000000002041542B53415042523D332C31CB
:1020F0002C22434F4E54595045222C2247505253C4
:10210000220A000041542B435354543D22696E74FB
:1021100065726E6574220A0041542B53415042523D
:102120003D312C310A00000041542B5341504252A2
:102130003D322C310A00000041542B43494943529F
:102140000A00000041542B43494653520A00000044
:1021500041542B48545450494E49540A0000000041
:10216000FFF722FC3846FEF7ABFEC848FFF79FFD9D
:102170000025C64800230122C549E038FFF7BEFB11
:102180002046FEF79DFE6D1CEDB20A2DF1D31822FC
:10219000C0A156A8FEF771F956A8FEF74FF982B212
:1021A000BA48334656A9E038FFF7FEFB56A8FEF7BB
:1021B00045F9401DB54982B23346A1F1E000FFF771
:1021C0009DFB56A8FEF73AF9401DB04982B233464E
:1021D000A1F19800FFF7E8FB41F28830FEF770FEAE
:1021E000AA48FFF764FD0025A84800230122A8495A
:1021F000E038FFF783FB2046FEF762FE6D1CEDB270
:102200000A2DF1D3A24D6869044600F00FFCC0B25C
:10221000824600F02BFC214600F008FDDFF88CB26E
:10222000594600F037FC044600F000FCC0B280467E
:1022300000F01CFC214600F0F9FC594600F02AFC95
:10224000074600F0F3FBC1B28946084600F00EFCD9
:10225000394600F0EBFC594600F01CFC00F0E6FBB0
:10226000C0B203902869054600F0E0FBC6B23046D4
:1022700000F0FCFB294600F0D9FC594600F00AFCAE
:1022800000F0D4FBC5B2284600F0F0FB214600F078
:10229000CDFC594600F0FEFB00F0C8FBC4B220465E
:1022A00000F0E4FB394600F0C1FC594600F0F2FBB7
:1022B00000F0BCFB00F0FF0B58227D4918A8FEF788
:1022C000DCF8AFF2C41000687AA25C9007CA4DAB8C
:1022D00083E8070018A8FEF7B1F807464DA8FEF7F7
:1022E000ADF807445CA8FEF7A9F838440C30FDF7B8
:1022F00082FF5CA92E90CDE907B1CDE9055402A972
:1023000003984DAA81E84500CDE90089534618AAF3
:102310006BA12E98FDF7C6FF2E98FEF78FF882B2BC
:102320005A484FF0FF363346E0382E99FFF73CFB12
:102330002E98FEF783F8401D544982B23346A1F12E
:10234000E000FFF7DBFA2E98FEF778F8401D4F49C2
:1023500082B23346A1F19800FFF726FB44F62060D5
:10236000FEF7AEFD00254FF4FA7448480023012221
:102370004749E038FFF7C2FA2046FEF7A1FD6D1C81
:10238000EDB20A2DF1D34148FFF791FC3C2253A155
:1023900009A8FEF772F809A8FEF750F882B23B4888
:1023A000334609A9E038FFF7FFFA09A8FEF746F817
:1023B000401D364982B23346A1F1E000FFF79EFA94
:1023C00009A8FEF73BF8401D304982B23346A1F11F
:1023D0009800FFF7E9FA41F288373846FEF770FDBA
:1023E0002A48FFF764FC00252848002301222849D9
:1023F000E038FFF783FA2046FEF762FD6D1CEDB270
:102400000A2DF1D3142244A13CA8FEF736F83CA8CB
:10241000FEF714F882B21D4833463CA9E038FFF7B6
:10242000C3FA3CA8FEF70AF8401D184982B23346A9
:10243000A1F1E000FFF762FA3CA8FDF7FFFF401DA5
:10244000124982B23346A1F19800FFF7ADFA38463F
:10245000FEF736FD0D48FFF72AFC00250B48002348
:1024600001220B49E038FFF749FA2046FEF728FD24
:102470006D1CEDB20A2DF1D3FEF75CFA6420FEF775
:102480001FFD2E98FDF7E6FEBCE60000700100205F
:102490000000002041542B48545450504152413DBB
:1024A00022434944222C310A000000000000204150
:1024B000542D0008266669656C64323D00000000FA
:1024C000257325642E256425642564257325642ED3
:1024D00025642564256425730000000041542B48C1
:1024E000545450504152413D22434F4E54454E5456
:1024F000222C226170706C69636174696F6E2F7831
:102500002D7777772D666F726D2D75726C656E63A2
:102510006F646564220A000041542B4854545041B2
:102520004354494F4E3D300A0000000021F0004264
:10253000A2F16052B2F5801F01F0004328BFD2F132
:102540007F6C0BD95FEA001C43EAC20242EB507079
:1025500018BF704728BF20F001007047B2F5801FF8
:10256000BCBF184670474FEA410C1CF5001F02D251
:10257000084600F056BB70B500F0B4F800000089C2
:10258000FFF7F6BF4FF00040A0F580007047000055
:10259000DFF848C170B51CEA111E1EBF1CEA1315F6
:1025A0009EEA0C0F95EA0C0F00F06F8081EA03049D
:1025B00023EA4C134EEAD47E21EA4C1141F48011F7
:1025C00043F48013AE44A1FB024CA0FB0365AEF1C3
:1025D0007F7E361955EB0C05A1FB034C4CF1000333
:1025E000A0FB021C16EB0C06654153F100030942E7
:1025F00018BF46F0010613F4007F0BD14FEA0331F8
:102600004FEA0530340341EA155140EA16506FF0A5
:1026100003020AE04FEAC3214FEAC520F40241EA6F
:10262000555140EA56506FF0020202EB2E4201EB88
:10263000025585EACE710AD05FEA440C18BF24F037
:10264000004450F1000041F1000120EAD47040F252
:10265000FE7C624500D270BDA84214BF4FF080449A
:102660004FF04044002E08BF0024BEF1806FA8BF89
:10267000A1F1C041BDE8704080F282804FF00000BF
:1026800001F1C04101F0004170479EEA0C0F0CEAD5
:10269000131518BF95EA0C0F06D04FF0000081EA21
:1026A000030E0EF0004170BD00F01CF88900013EE1
:1026B00000F007B800F009B84FEA430C5FEA5C5C31
:1026C00008D081EA030100F05BB84FEA410C5FEAF1
:1026D0005C5CF6D14FF00000014970470000FF0735
:1026E0000000F87F0EF1020E2EF0030E5EF8046B70
:1026F000364205D4012A43EB030515F5001F12D815
:10270000012841EB010C1CF5001F0CD80ED14FEA3B
:10271000D17C15F5001F0CEB4C0C0CF1020C08BF22
:102720004CEBD37C04E04FF0080C01E04FEAD37C83
:102730000CEB4C0526FA05F606F00706B6F1040C7C
:1027400006D20EEB860CBDE870404CF0010C6047E1
:10275000DFE80CF0090B02024FF000414FF00000DF
:10276000A1F5002170BD19461046012851EB010466
:1027700018BFD4F5001484BF002001F0004170BDE3
:102780000808A0F500114FEA3101704743004FEAF5
:10279000D30C4FEA3C0C43401FBF40070CF1605183
:1027A00013F0FE4F70471CF0006F03D100200CF0B7
:1027B000004170470CF0004343EA507010B540EA06
:1027C000CC0000F0E8F900BF000000924FEA0001E1
:1027D000FFF7D6BF4FF000414FF00000A1F50021F8
:1027E0007047000090EA010F48BF81F0004100F1FE
:1027F0002E82421A3CBF801A89184FEAD0524FF0FD
:102800007F4C1CEA410FA2EBD15318BF9CEA026F28
:1028100000F03B804FF0004C4CEA00204CEA0121D4
:1028200021FA03FC10EB0C0C1ED202F1FF325FEA1E
:102830001C2040EBC25038BF70471CF07F0F4FEA9E
:10284000400C18BFBCF17F4F38BF7047C3F1200365
:10285000994008BF20F00100BCF17F4F38BF70479E
:10286000A0F1C04000F0DDB94FEA3C00000A40EBA7
:10287000C25028BF1CF0FF0F4FEA400CE6D018BF33
:10288000BCF17F4F38BF7047EAE79CEA026F05D082
:1028900010EA5C0F08BF00F00040704710B500F070
:1028A0007AF900BF64FBBE3E4FF47F0C1CEAD012E5
:1028B0001EBF1CEAD11392EA0C0F93EA0C0F00F032
:1028C000858090EA010F48BF42F4807240F4000C0A
:1028D00041F400002CF07F4120F07F4000B58142A0
:1028E000A2EB03020FF2081CACEB504EC0F100004B
:1028F0009EF800E04FEA4E0E00FB0EFC38BF490088
:102900004FEA2C1C02F5FA020CFB0EF34FEACE1E26
:102910004FEA112C4FEAC1210EEB635E42EB2242DB
:102920000EFB0CFC4FEA1C5300FB03114FEA112C69
:102930004FEA01310EFB0CFC4FEADC4C00FB0C11A2
:10294000C14228BF09184CEB03335DF804EB10EBD0
:10295000410143EBC250B2F57C0F38BF704729D517
:1029600012F0F00F1CBF00F1C04000F000407047B3
:10297000008182838485868788898B8C8D8E8F9158
:102980009293959697999A9C9D9FA0A2A3A5A7A87C
:10299000AAACAEB0B2B3B5B7B9BCBEC0C2C5C7C9A8
:1029A000CCCED1D4D7D9DCDFE2E6E9ECF0F3F7FA0C
:1029B000FE0000004FEA400C0CF1807CBCF17E4F21
:1029C00028BF7047B0F1C04000F02BB990EA010F6A
:1029D0000CEAD11348BF42F48072624538BF6345A8
:1029E00007D213F47F0F16D080EA010000F00040F8
:1029F000704710B500F0CFF8097EFC3E00F005B836
:102A000080EA010000F00040704780EA010000F019
:102A1000004000F006B912F47F0F04BF024870476F
:102A200080EA010000F0FDB80000C07FC10DD1F1C7
:102A30009E0206DB4FEA002343F0004323FA02F034
:102A40007047004207D54FEA4001B1F1FE4F02D274
:102A50004FF00000704710B500F09DF849922480B7
:102A6000002070476FEA200070470000B0FA80F342
:102A700010FA03F2C3F19D030AD0D90501EB12202D
:102A8000530638BF704700F1010008BF20F0010075
:102A9000704700004FF47F0C1CEAD0121EBF1CEAE6
:102AA000D11392EA0C0F93EA0C0F00F0478090EAE2
:102AB000010F48BF42F480724FF0004C4CEA0020F6
:102AC0004CEA012102EB0302A0FB0113A2F5000274
:102AD000002918BF43F001035B0028BF4FEA33030E
:102AE00042EB22425FEA132C4CEBC2502EBFBCEBF0
:102AF000436FB2F57C0F70474FEA036CBCF1004F97
:102B000008BF20F00100B2F57C0F38BF70470BD52D
:102B100082F0FF0212F5803FC8BF704700F1C0404D
:102B2000D8BF00F00040704700F5000C5FEA4C0C85
:102B300048BF7047B0F1C04000F073B890EA010F91
:102B40000CEAD11348BF42F48072624538BF634536
:102B500004D280EA010000F00040704710B500F098
:102B60001AF800BF8900013E00F007B800F009B86C
:102B70005FEA410C5FEA1C6C08D080EA010000F0BB
:102B800050B85FEA400C5FEA1C6CF6D14FF0004091
:102B9000A0F5800070470EF1020E2EF0030E5EF8D5
:102BA000044B244204D44FEA4102B2F17F4F11D8C2
:102BB0004FEA4003B3F17F4F0CD80ED14FEAD07CDF
:102BC000B2F17F4F0CEB4C0C0CF1020C08BF4CEB3C
:102BD000D17C04E04FF0080C01E04FEAD17C0CEB13
:102BE0004C0324FA03F404F00704B4F1040C06D2F5
:102BF0000EEB840CBDE810404CF0010C6047DFE8A0
:102C00000CF0070802024FF00040A0F5800010BD54
:102C10000846420018BFD2F1807288BF00F0004021
:102C200010BDFF2141EAD050C005704780F0004040
:102C300090EA010F7FF5DDAD81F0004100F007B8AB
:102C400090EA010F48BF81F000413FF5D2AD421A32
:102C500004D882F00042A0EB020011444FEAD052A7
:102C60004FF07F4C1CEA410FA2EBD15318BF9CEAF6
:102C7000026F4AD04FF0004C4CEA00204CEA012190
:102C800021FA03FCB0EB0C0C0FD412F0FE0F36D07F
:102C90005FEA4C001DD5001240EBC25038BF7047B0
:102CA0001CF03F0F18BF70470BE0A2F101025FEA72
:102CB0001C2040EBC25038BF70471CF07F0F18BF7C
:102CC0007047C3F12003994014BF401E20F001005B
:102CD000704780084FEA122308BF7047B0FA80FCA3
:102CE000A2EB0C02CCF1280C60FA0CF093EA122F44
:102CF00004BF00EBC25070474FEAC3707047130A1D
:102D00005FEADC1008BF7047F6E79CEA026F04D068
:102D100010EA5C0F08BF0020704710B5FFF73BFFBB
:102D200040DFF63E81F000407047010202030405D7
:102D3000060708090A0B0C0D0E0F1010000000000A
:102D4000000000000102030406070809000000005B
:102D50000102030441542B48545450504152413D08
:102D60002255524C222C22687474703A2F2F6170B5
:102D7000692E7468696E67737065616B2E636F6D21
:102D80002F7570646174653F6170695F6B65793D33
:102D90005147484959363731304A384438514B4207
:102DA000266669656C64313D00000000CC2D00088A
:102DB000000000203000000028010008FC2D000861
:102DC000300000202009000044010008000000003D
:102DD00000000000000000000000000000000000F3
:102DE00000000000000000000000000001000000E2
:0C2DF00010000000000000000024F400AF
:04000005080000ED02
:00000001FF
